:101A4000234B5F4C5F313523202020202020202095
:101A500023424C48454C492445464D3842313023B9
:101A0000100721FFFFFFFFFFFF09FF01FF55AA019C
:101A1000FFFFFFFFFF03FFFFFF25D0285004FF0259
:0A1A2000FF7AFF0701FFFF0000FF3F
:101A60002020202020202020202020202020202076
:030000000219FDE5
:0200030061108A
:0200130081FF6B
:02001B008070F3
:02002B0041D5BD
:02005B00A10EF4
:0200730041FD4D
:100080000406080C10182030406080A0C0C2AFC227
:10009000A853E6EFC28E856B8BC0D0D2D3C0E0C030
:1000A000F0C2CAA8CCA9CDD2CAD2AF758A00C3E823
:1000B000956CF8E9956DF9C3E913F9E813F8E5666D
:1000C0006007C3E913F9E813F8E97025E8956E4075
:1000D00020956E501CE582B410177C007B007A00DE
:1000E0007908900000A86AE5667004C3E813F80177
:1000F000FA900000D2A8D2AA61BAE0FDC39CC398CE
:1001000040EF98EB33FB0582E0FCC39DC39840E1D0
:1001100098EB33FB0582E0FDC39CC39840D398EB7A
:1001200033FB0582E0FCC39DC39840C598EB33FBCD
:100130000582E0FDC39CC39840B798EB33FB058272
:10014000E0FCC39DC39840A998EB33FB0582E0FD1A
:0D015000C39CC398409B98EB33FB0582E0F5
:10015D00FCC39DC398408D98EB33FB0582217590B0
:10016D000000D2A8D2AA61BAE0FDC39CC39840EFAB
:10017D0098EA33FA0582E0FCC39DC39840E198EA02
:10018D0033FA0582E0FDC39CC39840D398EA33FA55
:10019D000582E0FCC39DC39840C598EA33FA0582F9
:1001AD00E0FDC39CC39840B798EA33FA0582E0FCA2
:1001BD00C39DC39840A998EA33FA0582E0FDC39C1C
:1001CD00C398409B98EA33FA0582E0FCC39DC3981F
:1001DD00408D98EA33FA0582EBC46B6A54F0F9EA64
:1001ED00C454F0C3996009900000D2A8D2AA61BA94
:1001FD00EBF4C454F0F9EAF4C4540F49FAEBF4C427
:0A020D00540FFBC3EAF99460FAEB0A
:100217009400FB5020C3E97B007A0079006016C385
:10022700135006F9C39552600AE9F55275530079E0
:100237000080020553303A27C3EA94D0F8EB9407BD
:10024700F9400BE8FAE9FB203509D235415A303538
:1002570002C235203902B235C3EA33FAEB33FBEB7E
:100267002B3B3BF9C3EB13FBEA13FAEA29FAEB340E
:1002770000FB30E3047AFF7BFFE5255403601B2076
:100287002A18E55D33F9EB7007C3E99A4002E9FAEA
:10029700E53CC4332AFAEB3400FBC3EA33C4540FFA
:1002A700F8EB33C454F048F87005EA60027801C3EC
:1002B700EB13FBEA13FA900000D2A8D2AAE522605A
:1002C700021522819E900000D2A8D2AA61BAC0D09E
:1002D700C0E0C2CF0541E52360021523C3E55460A2
:1002E7000575550041F8E5552401F5555003755539
:0E02F700FFD0E0D0D032C2AF53E67F7592FA4E
:100305007593FFC22053917FD2AF32C0E0E58A30AA
:100315003408856B8BF0A3D0E032D0E0C2AF53E652
:10032500EFC0D0C0E0C0F0D2D3D2AF5388EFA88AD7
:10033500A98C758A00758C0043881030331FE8C47A
:10034500540FFAE9C454F04AFAC3132AFAC3E8333E
:10035500F8E933F9E82AFAE93403FB61AB30320FE7
:10036500C3E833E933FAE82AFAE93400FB61AB3034
:100375003115E875F056A4AAF0E975F056A42AFAE5
:10038500C5F03400FB61ABE875F02BA4AAF0E97564
:10039500F02BA42AFAC5F03400C313FBEA13FAC301
:1003A500EB13FBEA13FAC3EB94095009C3EA949AD9
:1003B500EB940350160522E52270021522C3E522AF
:1003C5009432500281F275540081F5E522600215E0
:1003D500223036067C007D0461EAAC31AD32303A1C
:1003E50004AC33AD34C3EA9CFAEB9DFB9208AE60D6
:0203F500AF61F6
:1003F700303A425007203509D2358108303502C2DC
:1004070035303504AE62AF63203902B235C3EA3303
:10041700FAEB33FBA208500AEAF42401FAEBF434AE
:1004270000FBC3EA9428FAEB9400FB501478007A97
:10043700007B008148A208500878007A007B008181
:100447009EE52554036019202A16E55DF9EB700730
:10045700C3E99A4002E9FAE53CC42AFAEB3400FB07
:10046700EA8EF0A4F9AAF0EB8EF0A42AFAC5F034CC
:1004770000FBC3EB13FDEA13F80FEF146004C3E8A6
:1004870033F8C3E933EA33FAEB33FBDFEDEB30E262
:100497000678FF7AFF7B038854D230E860037555EE
:1004A70000C3E55BFC955C4002AC5CC3EC95545023
:1004B70008EC75F004A4FAABF0EAF4F8EBF4540393
:1004C700F9C3E8940FFAE99400FB50047A007B0023
:0404D7008856895763
:1004DB008A588B5975230AD0F0D0E0D0D053F7DF70
:1004EB0043F74043E6103275230AD0F0D0E0D0D06A
:1004FB0043E61032C2AAD28EC2CA85CC6C85CD6DB2
:10050B00D2CA32C2AFC0D0C0E0D2D3A8F9E55A30BC
:10051B00E10AE5FA20E13520E032A12FE5FA30E1DE
:10052B002B20E028C3E55713F8E55613F5E988EAC5
:10053B00C3E55913F8E55813F5FB88FC85575A5357
:10054B00F7BFD2A8303402D2AA53E6EF53F7DFD06D
:10055B00E0D0D0D2AF327901801479038010790AC0
:10056B00800C791E80087964800479C88000781724
:10057B00E4D5E0FDD8FAD9F62278FF20282879A116
:10058B00E76023E548601F74FF8548F084853FF0E2
:10059B0030290375F005A4F8C5F0600278FFC3E8B5
:1005AB00955D5002A85D885C22C3E54794E4E5485D
:1005BB009400E55C500314A1C5046002F55C227540
:1005CB00E89022055EC3E55E9408405330EDF4A835
:1005DB00BDA9BE755E00E9FA79A0E76041EA700635
:1005EB00E55F6018800CC3E8955F600EE55F500512
:0505FB00600A148007F6
:100600000460FA8002E55FF55FC39569401B755B86
:10061000C0C394044013755B80C39404400B755BA6
:1006200040C394044003755B0022E55B2410500234
:1006300074FFF55B22743279A687F0A4C5F0A2F7A7
:1006400033F55D227547007548F022C2AFC2CAA8D3
:10065000CCA9CDAA4130CF010AD2CAD2AFAB42ACAD
:100660004388428943C3E89BF8E99C202808F93075
:100670002C02E15BC1B4AD448A44F9EA9DFA6006FC
:1006800078FF79FFC199AE45AF468B458C46A842AD
:10069000A943C3E89EF8E99FF9C3E54813FBE54782
:1006A00013FAE82AF547E93BF54850067547FF7508
:1006B00048FFE101AA47AB48AC47AD487E047F0242
:1006C000C3EB9404400D1E1FC3EB94084005202982
:1006D000021E1FC3ED13FDEC13FCDEF7C3EA9CFA08
:1006E000EB9DFBEF6009C3E913F9E813F8DFF7EAC4
:0106F00028E1
:1006F100FAEB39FB8A478B4850067BFF8B478B48C7
:10070100C3EB94025002D22C3028047F03E12C78F1
:1007110092E6FFC3E53D948240110FC3E53D94A0ED
:1007210040010FC3EF940640027F057E02E548C4F5
:10073100540FF9E548C454F0F8E547C4540F28F8BC
:10074100C3E89EFAE99400FB4009C3EA9401EB94E3
:100751000050047A01E4FB0207A7AA47AB48EBC4A7
:10076100FEEAC4540F4EFCC3EA9CFAEB9400FBC3AF
:10077100E813C313F8EA28FAEB3400FB8A478B48E5
:10078100C3EB94024002C22C7802EBC4FE7B00EA68
:10079100C4540F4EFAC3EA98FA4005C394015002BB
:1007A1007A017892E6FF302002E1A7854E92854FCB
:1007B10093D22043E680C3E49AF8E49BF9302C03FA
:0C07C100020835E8FAE9FBD3E913FDE873
:1007CD0013FC884E894FC3EF94036038EF20E00C83
:1007DD00E82CF8E93DF9ECFAEDFB8013E828F8E98F
:1007ED0039F9C3E82401F8E93400F97AFF7BFFC336
:1007FD00EF9403400F8A508B51884A894B8C4C8D56
:10080D004D02086A885089518A4A8B4B8C4C8D4D0C
:10081D003028127550F07551FF754CF0754DFF7500
:10082D004EF0754FFF02086AE8FAD3E813FC884EC4
:10083D00C3EF94036021EF20E007E82CF8ECFA01F8
:10084D0055E8282401F87AFFC3EF940340098A5034
:10085D00884A8C4C02086A88508A4A8C4C30200297
:10086D00016A753A02D22043E680E52554036034CF
:10087D00A847A948C3E913F9E813F8C3E913F9E840
:10088D0013F8302804E92440F9C2AF53E67F75917F
:10089D0000C3E498F594E499F595759104D220433D
:1008AD00E680D2AF22D221754900752000302B038E
:1008BD0075204001D0D221754900752040302B03A1
:0308CD0075200093
:1008D00078017901202C20E52554036002C221799A
:1008E00014E548C313700104F8C39414400278144B
:1008F000302804781B791B202010E549600C302833
:1009000003D53A04D222217711720549E59B544060
:10091000B52002216130280908C3E8994001180177
:10092000F720210A08C3E899400201D001F7C2214B
:1009300053E67F759100302C117594007595F8750C
:100940009104D22043E6800208D0E5487EFFC333FD
:100950004005C3334001FEC3E49E759400F5952124
:100960003FC3E5399401500201D030210201D0D8B3
:1009700002217501F7C222C2AF53E67F759100854F
:100980005094855195759104854A92854B93D22058
:1009900043E680D2AFE525540360072029020539DC
:1009A000801030220D202B0A20210715811581028D
:1009B00013512278003021027801E53D75F007A43B
:1009C000F9E5F028F5F0E9A2F013A2F113A2F21371
:1009D000F53DC394785003753D78C3E53D953E40A1
:1009E00009C295C294C29375D53F30200221EA8591
:1009F0004C92854D93D22043E68022203810C2AF1E
:020A0000D29191
:100A0200C29075D533D2AF759F3241CBC2AFD2916E
:100A1200C29275D51ED2AF759F3241CB203810C21B
:100A2200AFC29375D52DC290D2AF759F5241CBC242
:100A3200AFC29575D52DC292D2AF759F1241CB2010
:100A42003810C2AFD290C29275D52DD2AF759F1217
:100A52008077C2AFD292C29075D52DD2AF759F5218
:100A62008067203810C2AFC29475D51EC292D2AF31
:100A7200759F328054C2AFC29475D533C290D2AF43
:100A8200759F328044203810C2AFD292C29175D580
:100A92001ED2AF759F528031C2AFD290C29175D52E
:100AA20033D2AF759F128021203810C2AFC2957524
:100AB200D533C291D2AF759F12800EC2AFC2937569
:100AC200D51EC291D2AF759F52227A147B788012C2
:100AD2007A107B8C800C7A0D7BB480067A0B7BC8F3
:100AE2008000E564D5E001227902E4D291D5E0FDEF
:100AF200D294D5E0FDC294D5E0FDC291D5E0FDE9E6
:100B020020E002D29530E002D293E564D5E0FDE91F
:100B120020E002C29530E002C2937496D5E0FDD97E
:100B2200C9EAF8D5E0FDD8FBDBB8D29122C295C262
:100B320094C293D290D291D29275D53F2278807688
:0A0B4200FF0876FF0876FF0876FF33
:100B4C000876FF0876FF0876090876FF08760178A4
:100B5C008C76010876FF0876FF0876FF0876FF088A
:100B6C0076FF0876030876FF0876FF0876FF08768E
:100B7C00250876D00876280876500876040876FF83
:100B8C000876020876FF08767A0876FF087607085A
:100B9C0076010876FF0876FF08760008760022FAC0
:100BAC0075F00CA4ABF0EAC333F8740133F9E8C365
:100BBC0033F8E933F9E8C32BF8E93400F9227888E3
:100BCC00E6C39403D23A5002C23AC238E630E1028C
:100BDC00D238A23892397886E6149000809378A6A1
:100BEC00F67886E6F53FC394025003753F02789C75
:100BFC00E6753EFFB40203753EA0B40303753E8256
:100C0C0078A0E6F8600674282409D8FCF569789673
:100C1C00E671AB88318932789EE671AB88338934C2
:100C2C007897E671AB88358936712F223036117A78
:010C3C0000B7
:100C3D007B007CFF7D007E00919E8B618A6022305F
:100C4D003A227896E6FA7B00789EE6FC7D00C3EAB0
:100C5D0033FAEB33FBC3EC33FCED33FD7E0A919E8F
:100C6D008B638A627896303A02789EE6FA7B00783A
:100C7D0097E6FC7D007E00303A10C3EA33FAEB3381
:100C8D00FBC3EC33FCED33FD7E0A919E8B618A60D4
:100C9D0022C3EC9EFCED9400FDC3EC9AFCED9BFD94
:100CAD00C3EC9423ED940050047C237D00C3EC949D
:100CBD00FFED940140047CFF7D017BFF0B7A000A60
:100CCD00EA7009C3EC33FCED33FD81C9EC8AF0A465
:100CDD00AEF0ED8AF0A42E947C40E4EAF460DD22BF
:100CED00D236913812056D12056D7A007B007C109D
:100CFD00120565E5542AFA74003BFBDCF37C04C352
:0A0D0D00EB13FBEA13FADCF7FFEB2F
:100D170060027FFFC23691382278A5E6F954037046
:100D270000E9540C7000E954307000E954C07000B9
:100D3700227567007568007597DE7597AD7581C078
:100D470043FF8075EF0675A900712F7580FF75F158
:100D5700D175A4007580FF75D4FF75900775F23FB4
:100D670075A53F75900775D53F75A60175E3407565
:100D7700E202712FE4F8F6D8FD713F1213877898D5
:100D87008664753001C2AF12057551CC12056D51DD
:100D9700D212056D51D812056DB120C2AF7567002B
:100DA70075680078FA79FA308004D9FBD8F771CAE8
:100DB700913878988664712F75E400758811758E5F
:100DC7000475890975C80475910475D84075D908E3
:100DD70075F781759E0375960075DB4275DA427566
:100DE700A82175E69075B801759B80759D0075D132
:100DF7000C75BC5975BB1075E88075B20112056199
:100E0700D2AF753C00C230120575C231C232C2334F
:100E1700C234755200755300752200120571C3E57F
:100E270022940A5002C1F6D231752200120571C30D
:100E3700E522940A5002C1F6C231D232752200125D
:100E47000571C3E522940A5002C1F675E4807588DE
:100E570051758E017589AA758C00758D00C2A9D24E
:100E6700ABD2AA756BC0756A14756E50C232D23494
:0A0E770075220A120571756A10C396
:100E8100E522940A7552007553004069758E0C7500
:100E91006B80756A28756E2875220A120571756A4C
:100EA10020C3E522940A7552007553004047758EA0
:100EB1000C756BC0756A14756E1475220A12057172
:100EC100756A10C3E522940A7552007553004025D6
:100ED10075E400758811758E04758909D2A9C2ABB4
:100EE100C2AAC234D233752200120571C3E522941D
:100EF1000A4002A1A2120565203003020DA2C2AF71
:100F010051CC51CC51CCD2AF120575203403303ABB
:100F110003020FB4120565788CE6C394015002E117
:100F2100B4E530C394015002E1B47567A57568F169
:100F31007F02D2369138120571C2AFC2369138C3E1
:100F4100E554947FD2AF406B120561C2AF51DED23E
:100F5100AFDFDF91EDC3EF7897F6120575121474C8
:100F61007F0AD2369138120571C2AFC2369138C3A9
:100F7100E554947FD2AF50E8120561C2AF51CC1253
:100F8100056951CCD2AFDFDA91EDEF24037896F603
:100F9100F87997E7C394234003985006E82423780F
:100FA10097F61205751213CE1214A312057191381A
:100FB100020DA2756700756800120571C3E55494AE
:0B0FC100014002E10CC2AF51DE51DE26
:100FCC0051DED2AF120575753000E4F537F53805F2
:100FDC0037E537F4703F0538789AE67819146012C3
:100FEC00783214600D787D14600878FA14600375FB
:100FFC003800C3E53898401D120B2F1205611538C7
:10100C0075370078998664C2AF120ADED2AF789831
:10101C008664120571120569E5237003020DA2C3E3
:10102C00E5549401500AC3E55294015016020FDBAB
:10103C00120571E5237003020DA275520075530061
:10104C000211F1C3E55294017017C2AF120B2F7845
:10105C00998664120ACC78988664D2AF12057121F5
:10106C00E3C3E55294027017C2AF120B2F78998626
:10107C0064120AD278988664D2AF12057121E3C348
:10108C00E55294037017C2AF120B2F789986641235
:10109C000AD878988664D2AF12057121E3C3E55261
:1010AC0094047017C2AF120B2F78998664120ADE63
:1010BC0078988664D2AF12057121E3C3E55294058A
:1010CC007017C2AF120B2F78998664120ADE7898CB
:1010DC008664D2AF12057121E3C3E55294077019EF
:1010EC00C3E55394065002012B7401303A02740389
:0910FC007888F6C238C23921E3FC
:10110500C3E55294087019C3E55394065002012BA8
:101115007402303A0274047888F6D238D23921E361
:10112500C3E55294097017C3E55394065002012B89
:10113500303A0BC37888E69402F6C23A21E3C3E558
:1011450052940A7016C3E55394065002012B203AB7
:101155000A7888E62402F6D23A21E3C3E5529414CC
:101165007025C3E55394065002012BC2AF901A0BAC
:10117500740093D2AF7888F613C238C2394002D2D0
:10118500384002D2398057C3E55294157038C3E50B
:10119500539406404FC2AF901A0B740093D2AFF828
:1011A500B801027402B802027401B803027404B8EB
:1011B500040274037888F613C238C2394002D23863
:1011C5004002D2398018C3E552940C70117567A599
:1011D5007568F1C3E5539406400A71CED2AF7552D6
:1011E50000755300756700756800012BC2AF120BBF
:1011F5002FE4D2AFE4F55EF524F525F53D755E08DF
:101205001205611205CA30EDFDA8BDA9BEE9700140
:10121500F8885F1205CE755E08C2AF120635855D8A
:091225005B855D5CD2AF303A0735
:10122E00C238303502D238D228753900120A8712E8
:10123E000AAA12064412064B12064412064B120656
:10124E00441208C21209B31209FB12064B1208B25D
:10125E00202C03120584302C031205B41209B3128C
:10126E000A1E12064B1208C21209B3120A411206C6
:10127E004B1208B21209B3120A6412064B1208C2BC
:10128E001209B3120A8712064B1205CA1208B212BD
:10129E0009B3120AAA1205CE12064B302827855D15
:1012AE005B79187A0CC3E53999400EC228D2298A87
:1012BE003B855D5B855D5C800CC3E554940140030A
:1012CE0002124F615930291F202B1CE53B1470066A
:1012DE00C229D22A414FF53B203A07C3E554940167
:1012EE00400302124F8064753C00203A0F78FA7961
:1012FE00A4E760027803C3E55598504FE523604B91
:10130E00303A17203805203507800F303502800A15
:10131E00202B07D22B855D5B417F78F0302B058526
:10132E005D5B7820C3E54898500302124F302B1BAB
:10133E00C22BC238303502D238D229753B12855DA8
:10134E005B414F053CE5546002615C753C00C2AFE9
:10135E00120B2F752400752500D2AF120571120BDA
:10136E002F78A4E66006C290C291C292C3E53C9467
:10137E00044003020DA2020FD6901A0D7820910799
:10138E00E520B4550AA39107E520B4AA028013758F
:10139E0067A57568F1120B3F71CE75670075680011
:1013AE00801D901A0378807B0A9107A308DBFA90C0
:1013BE001A0F788C7B1A9107A308DBFA901A292250
:1013CE00C2AF914A9127901A007410910CA3740722
:1013DE00910CA37421910C901A0378807B0A910BC7
:1013EE00A308DBFA901A0F788C7B1A910BA308DBFB
:1013FE00FA915D913B901A2922E493F622E6438FEF
:10140E0001538FFDFFC3E583941C400122EF8567D6
:10141E00B78568B7F0538FFE22438F02438F018545
:10142E0067B78568B7901A0DF0538FFC22901A0D8E
:10143E007455910C901A0E74AA910C227A3079D0B0
:10144E007820901A409107E520F709A3DAF7227A5F
:10145E003079D0901A40E7910C09A3DAF9227C0575
:10146E00120575DCFB22C2AF120ACC120AD2120A86
:10147E00D8120ADE120569120ACC120AD2120AD842
:10148E00120ADE120569120ACC120AD2120AD812F8
:10149E000ADED2AF22C2AF120ADE120AD8120AD266
:1014AE00120ACC120569120ADE120AD8120AD212D8
:1014BE000ACC120569120ADE120AD8120AD2120AD0
:0414CE00CCD2AF22AB
:101C0000C2AFC2D37597DE7597AD7581C075A90057
:101C100043FF80752438752503B1DB7529A5752A26
:101C2000F143F10153A4FED28075D4FF75E3407DEA
:101C3000FA780379067C01752200752300901DE86F
:101C40007B067524E67525FF3080028148208008D8
:101C5000D8FBD9F9DCF781BA308008D8FBD9F9DC98
:101C6000F781BAB19BE493A3C39A6004DDC381BA40
:101C7000DBDBB18D600281317B08E493FAA3B16EA6
:101C8000DBF87A30B16E752200752300B18DEAFC65
:101C9000EBFDC3ED94FE400EB18D8A278B28ED300D
:101CA000E0048A828B83B18D7AC270D8C3ED94FE32
:101CB000601950CEBD0029EC600F7520007521FF22
:101CC000752900752A000200008100A827A92808AC
:101CD00009D804D90281DDB191EAF281D10D81A642
:101CE000C3ED94035051EDA2E092007AC5C3E582A2
:101CF0009400E583941C508C200010438F02438F86
:101D0000018529B7852AB7F0300027A827A9280818
:101D100009438F01538FFDD804D902A132C3E58353
:101D2000941C4003A3A117E28529B7852AB7F0A325
:101D3000A117538FFC81827AC1BD030CE493A3FAEF
:101D4000B152DCF8B14A81828184AA22AB23B16E00
:101D5000EBFAEA6222752608C3E52313F523E52290
:101D600013F52250066323A0632201D526EAB1DBD6
:101D7000B1DB75260AEAF4200102D280300102C2EA
:101D800080B1DBC3134002C201D526EB22B191EA38
:101D9000FB208002A191308002A196752608AE2416
:101DA000AF25C3EF13FFEE13FEB1DFB1DBC3EA13C0
:101DB0003080024480FA30E703632201C3E5231335
:101DC000F523E52213F52250066323A0632201D5F3
:101DD00026D9E52265236523F52222AE24AF250E00
:101DE0000FDEFEDFFCD20122424C48656C693437BD
:061DF0003164E8B10601B8
:0319FD00020D38A0
:00000001FF
